:100000000200FB320000000000000032000000008F
:10001000000000320000000000000032000000007C
:100020000000003200000000000000000000C0E0FE
:1000300074141470FDD0E000227B0474FA11D2DB3A
:10004000FADAF622C0E0740311D2D0E022D290C2D4
:1000500092A2E49294A2E59295A2E69296A2E792E9
:1000600097D292C292A2E09294A2E19295A2E292D9
:1000700096A2E39297D292C29212002E12002E22E2
:10008000C29080CBC290C292120044C297C296D254
:1000900095D294D292C292120044120044D292C2DB
:1000A00092120044D292C292120044C294D292C2DE
:1000B000921200447428120080740E12008074069C
:1000C0001200802274011200801200447480120019
:1000D000802278497902D8FED9FCD5E0F522BA0110
:1000E00004797F8010BA020479BF8009BA030479C9
:1000F0008F800279CFE925F0020080787FE4F6D87E
:10010000FD75812175200012008411C4797F75F07E
:10011000011200F5780BE883600612004D0880F6A6
:1001200002012F4C6F6164696E67202E2E2E0079BC
:10013000BF75F0011200F5780BE883600612004DE0
:100140000880F60201514C434420436F6E66696794
:1001500000020151C2AF80FE00000000000000005C
:00000001FF
