:1000000002022402000000000000000200000000C4
:1000100000000002000000000000000200000000DC
:06002000000000020000D8
:020026000022B6
:0A0028007E087F20DFFEDEFC0022D0
:050032007F10DFFE223B
:10003700E50F5480F8630080E86004780080027858
:1000470001E8139297E50F5440F8630040E8600415
:10005700780080027801E8139296E50F5420F86340
:100067000020E86004780080027801E8139295E5A3
:100077000F5410F8630010E86004780080027801DC
:10008700E8139294E5096004780080027801E81388
:100097009290D2921126C292E50F5408F863000895
:1000A700E86004780080027801E8139297E50F541E
:1000B70004F8630004E86004780080027801E8131C
:1000C7009296E50F5402F8630002E8600478008016
:1000D700027801E8139295E50F5401F8630001E8EF
:1000E7006004780080027801E8139294E5096004BF
:1000F700780080027801E8139290D2921126C2927A
:0B010700E5096004112880021132227B
:0C011200750900850E0F113775090122D8
:08011E00E493F608A3D9F922CD
:10012600C292C290112811281128C297C296C29570
:10013600C294D295D294D2921126C2921128D2920A
:100146001126C2921128D2921126C2921128D29556
:10015600C294D2921126C2921128C297C296C29513
:10016600D295C294D2921126C292C295D297D292B9
:100176001126C2921128C297D294D2921126C29207
:10018600C294D2921126C2921128C294D2921126FA
:10019600C292D294D2921126C2921128C294D292BD
:1001A6001126C292D297D296D295D294D292112685
:0801B600C29211287509012213
:1001BE008019750A80802E750AC08029750A948070
:1001CE0024750AD4801F750A80801AE50A640160BE
:1001DE00E1E50A640260E0E50A640360DFE50A64B3
:1001EE000460DE80E1C3E50B9401F8E50A28F8858A
:1001FE00000A85000F1137750900750D00E50C25F5
:10020E000DF8E6600DE50C250DF8860E3112050D84
:06021E0080EB75090122CE
:100224007581471202923126750F011137750F0C33
:100234001137750A01750B01750C3031BE750A0250
:10024400750B01750C3C31BE7D0B7E227FFCDFFEFD
:10025400DEFCDDFA750800C3E50894045015750F3B
:100264001C11377D037E897F7DDFFEDEFCDDFA0510
:070274000880E480FE80FE1B
:0E0292007830791775827B75830212011E2267
:0C027B004C6F6164696E67202E2E2E000F
:0B0287004C434420436F6E6669670023
:00000001FF
