:100000000203DE32000000000000003200000000A9
:10001000000000320000000000000032000000007C
:100020000000003200000000000000000000860414
:100030007D00E6080DB42EFAE829F88607E4F6ED0F
:1000400029FDEFC39434600250012218D2D5E6B4E2
:100050002E028012B42D02800D30D50304C2D5B417
:100060003A047430D2D5F618DDE430D51C087D0092
:10007000E6080D70FB880118E6F71819DDFAECB4F4
:100080002D04742DF7097431F722AE02E6F7080942
:10009000DEFA22C0E074141470FDD0E000227B046C
:1000A00074FA3137DBFADAF622C0E074033137D064
:1000B000E022D290C292A2E49294A2E59295A2E6A6
:1000C0009296A2E79297D292C292A2E09294A2E173
:1000D0009295A2E29296A2E39297D292C2921200D5
:1000E0009312009322C29080CBC290C2921200A9B8
:1000F000C297C296D295D294D292C2921200A912FD
:1001000000A9D292C2921200A9D292C2921200A960
:10011000C294D292C2921200A974281200E5740E01
:100120001200E574061200E52274011200E51200C7
:10013000A974801200E52278497902D8FED9FCD54D
:10014000E0F522E6F760040809DAF8E4F7227F0711
:10015000ED30E703762D08EC33ED33C3947FFDECEF
:10016000D2E7FCED30E71FF404FD763008762E0868
:10017000EDC394214006763008E4F622E4F91DED43
:10018000604451778040C39420400C766E087661BD
:1001900008766E087600227900C002C003C004C051
:1001A00005741FC39D6003FD51775187762E08D0DB
:1001B00005D004D003D00279000DEDB420067630CE
:1001C00008760022516AECCFFCEBFEEAFDE4FBFA74
:1001D000F9C0045132DCFCEF30E70AE92401F9E40C
:1001E0003AFAE43BFBE4FCD0077D00510DC0E00D82
:1001F000EC4B4A4970F5EFC39D6007FA7430F6087E
:10020000DAFCD0E02430F608DDF8E4F622C000C0C5
:1002100005E4FD7820E929F9EA33FAEB33FBEC3306
:10022000FCED33FD940A4002FD09D8E9EDD005D07C
:100230000022ED75F00AA4FDE5F0CE75F00AA42EBB
:10024000FEE435F0CF75F00AA42FFFE435F0C97550
:10025000F00AA429F9E435F0CA75F00AA42AFAE4F0
:1002600035F0CB75F00AA42BFB22EAC333FAEB334B
:10027000FBEC33FCDDF422ECC313FCEB13FBEA13C1
:10028000FAE913F9DDF1227D00510DC0E00DEC4BD0
:100290004A4970F5D0E02430F608DDF8E4F622E6AD
:1002A00060061200B20880F722E47808F608B81158
:1002B000FB78111203B5700302034878151203B5D9
:1002C00070030203487813E633034480F608E633EC
:1002D0009208FF7817E633034480F608E6335002AD
:1002E000B2082F30E70450118002400D75100075E0
:1002F0001100751200751300222481F67A18C37854
:10030000137B06E613F618DBFA78157B03E633F663
:1003100008DBFA500E7808790EC37B06E637F6083C
:1003200009DBF9DAD9780DE6791830E70307800B95
:1003300078087A06E633F608DAFA18E7A20813F71F
:10034000E692E7F685180E22750E00227A00EE304E
:10035000E716EBF42401FBECF43400FCEDF434007C
:10036000FDEEF43400FE7A017F1FEB2BFBEC33FC37
:10037000ED33FDEE33FE20E709DFEFE4FCFDFEFF89
:100380008021EF247EFFEB30E719EC2401FC5013B1
:10039000ED3400FDEE3400FE50090F13FEED13FDA9
:1003A000EC13FCEAA2E0EF13F618EE92E7F618A6BB
:1003B0000518A60422E4C00179044608D9FCD0013E
:1003C00022BA0104797F8010BA020479BF8009BA89
:1003D0000304798F800279CFE925F00200E5787F68
:1003E000E4F6D8FD75814A7520001200E9740C11FD
:1003F000E53129D2809104914774FA31370203F52F
:10040000C2AF80FEC280740A3137D28085A03375B6
:1004100011007512007513A075143C78338603081B
:100420008604ECE4FDFEFC780F714C7815A60C08F0
:10043000A60D08A60E08A60F51A9850B34850C350C
:10044000850D36850E3722797F75F0011203D87835
:100450000BE88360061200B20880F6020462496E5F
:100460003A007834860208860308860408860578F0
:1004700022314E793878227A101201437838790384
:10048000112E7838519F780BE88360061200B2086D
:1004900080F6020497560079BF75F0011203D878F0
:1004A0000BE88360061200B20880F60204BF4144E4
:1004B0004320776974682041444330383034002247
:00000001FF
