:100000000201083200000000000000320000000081
:10001000000000320000000000000032000000007C
:100020000000003200000000000000000000780F17
:10003000790BE766A2E75006E7A2E774FF22E50B1B
:10004000B50F12E50AB50E0DE509B50D08E508B5C1
:100050000C03C3E42274FF2212002E60044002E469
:1000600022740122AE02E6F70809DEFA2278497905
:1000700002D8FED9FCD5E0F522AE02760008DEFB00
:1000800022780C1179200111C2D574082A14F8E6DF
:1000900030E706B2D5780811FC20010F74102A143D
:1000A000F8E630E706B2D5781011FC7810790875BB
:1000B000F008EAA4FBE626F6C0D0BA0104D0D0804E
:1000C0000BD0D0AE021E08E633F6DEFA780CAE0294
:1000D000E633F608DEFAAE02780CE6970908DEFA97
:1000E00019781040127908C3780CAE02E697F60929
:1000F00008DEF9781019067908DBBA22AE02D3E6D9
:10010000F43400F608DEF822787FE4F6D8FD758135
:100110002E752000C290C291C292C293C294C29521
:10012000C296C2977521B175227F75233975240552
:1001300075250031407401116D020133C2AF80FE9C
:10014000C290C291C292C293C294C295C296C29703
:10015000E525B4000280030201E775080175090076
:10016000750A00750B0085211085221185231285E3
:1001700024137A04118130D50578101200FC851003
:100180002685112785122885132975080A75090007
:10019000750A00750B0085261085271185281285A4
:1001A00029137A04118130D505780C1200FC850CD6
:1001B0002A850D2B850E2C850F2D852AB0D2900512
:1001C0002575080A750900750A00750B0085260C4F
:1001D00085270D85280E85290F120058600302011E
:1001E000E4752500020608E525B401028003020239
:1001F0007E75080A750900750A00750B00852110C7
:100200008522118523128524137A04118130D505A6
:1002100078101200FC851026851127851228851379
:100220002975080A750900750A00750B00852610E6
:100230008527118528128529137A04118130D50567
:10024000780C1200FC850C2A850D2B850E2C850F51
:100250002D852AB0D291052575080A750900750A01
:1002600000750B0085260C85270D85280E85290F26
:10027000120058600302027B752500020608E5257E
:10028000B402028003020315750864750900750A3B
:1002900000750B00852110852211852312852413FA
:1002A0007A04118130D50578101200FC851026855E
:1002B000112785122885132975080A750900750A02
:1002C00000750B00852610852711852812852913B6
:1002D0007A04118130D505780C1200FC850C2A8532
:1002E0000D2B850E2C850F2D852AB0D292052575F4
:1002F000080A750900750A00750B0085260C85270C
:100300000D85280E85290F1200586003020312750F
:100310002500020608E525B4030280030203AC753C
:1003200008E8750903750A00750B00852110852200
:10033000118523128524137A04118130D505781094
:100340001200FC8510268511278512288513297532
:10035000080A750900750A00750B008526108527A7
:10036000118528128529137A04118130D505780C5E
:100370001200FC850C2A850D2B850E2C850F2D85F2
:100380002AB0D293052575080A750900750A00750B
:100390000B0085260C85270D85280E85290F120058
:1003A0005860030203A9752500020608E525B40478
:1003B000028003020443750810750927750A007549
:1003C0000B008521108522118523128524137A04C0
:1003D000118130D50578101200FC85102685112773
:1003E00085122885132975080A750900750A007594
:1003F0000B008526108527118528128529137A047C
:10040000118130D505780C1200FC850C2A850D2B46
:10041000850E2C850F2D852AB0D294052575080AE6
:10042000750900750A00750B0085260C85270D855A
:10043000280E85290F12005860030204407525001C
:10044000020608E525B4050280030204DA7508A057
:10045000750986750A01750B0085211085221185A5
:1004600023128524137A04118130D50578101200E7
:10047000FC85102685112785122885132975080A01
:10048000750900750A00750B0085261085271185F2
:1004900028128529137A04118130D505780C1200B1
:1004A000FC850C2A850D2B850E2C850F2D852AB0F9
:1004B000D295052575080A750900750A00750B00A7
:1004C00085260C85270D85280E85290F120058607A
:1004D000030204D7752500020608E525B40602804C
:1004E00003020571750840750942750A0F750B0006
:1004F0008521108522118523128524137A04118108
:1005000030D50578101200FC85102685112785123C
:100510002885132975080A750900750A00750B00EE
:100520008526108527118528128529137A041181C3
:1005300030D505780C1200FC850C2A850D2B850E14
:100540002C850F2D852AB0D296052575080A7509C8
:1005500000750A00750B0085260C85270D85280E71
:1005600085290F120058600302056E7525000206EA
:1005700008E525B40702800302060875088075099E
:1005800096750A98750B0085211085221185231216
:100590008524137A04118130D50578101200FC856A
:1005A000102685112785122885132975080A7509D3
:1005B00000750A00750B0085261085271185281205
:1005C0008529137A04118130D505780C1200FC8539
:1005D0000C2A850D2B850E2C850F2D852AB0D297E0
:1005E000052575080A750900750A00750B00852632
:1005F0000C85270D85280E85290F120058600302EF
:100600000605752500752500220000000000000089
:00000001FF
