:100000000200873200000000000000320000000003
:10001000000000320000000000000032000000007C
:10002000000000320000000000000032000000006C
:10003000000000320000000000000032000000005C
:10004000000000320000000000000032000000004C
:10005000C395F02212005060044002E42274012291
:1000600078497902D8FED9FCD5E0F522C3EC33FCFF
:10007000ED33FDE5822CF582E5833DF583E493F5D0
:1000800008A3E493F5092278FFE4F6D8FD758123EF
:1000900075200075210275210075F011E5211154BC
:1000A00070030200B411BB74F411600521E52160F6
:1000B00003020099020096C2AF80FEAC217D009041
:1000C00000D2120073850822E522F485E090852293
:1000D000B0223F065B4F666D7D077F6F777C395E90
:1000E0007971408000000000000000000000000066
:00000001FF
