:100000000201313200000000000000320000000058
:10001000000000320000000000000032000000007C
:100020000000003200000000000000000000C39546
:10003000F02212002E6003500122E422C0E0741B63
:100040001470FDD0E000227B0474FA11E6DBFADACA
:10005000F622C0E0740311E6D0E022D290C292A250
:10006000E49294A2E59295A2E69296A2E79297D2A4
:1000700092C292A2E09294A2E19295A2E29296A2FA
:10008000E39297D292C29212003C12003C22C2909C
:1000900080CBC290C292120052C297C296D295D221
:1000A00094D292C292120052120052D292C2921272
:1000B0000052D292C292120052C294D292C29212B2
:1000C0000052742812008E740E12008E74061200F4
:1000D0008E2274C012008E22740112008E12005201
:1000E000748012008E2278C87902D8FED9FCD5E03F
:1000F000F522C000C00120B0FD7817D8FE20B0F670
:100100007908782ED8FEA2B013D9F7D001D00022FA
:10011000C000C001C2B1782ED8FE79081392B17820
:100120002ED8FED9F7D2B113782ED8FED001D00048
:1001300022787FE4F6D8FD75812E7520001200929A
:10014000740F118E11D879237B05EB04FB83F7091B
:1001500070F8800A746573742074686973003110D4
:10016000C0E07821D0E0F675F020E521113260037F
:100170000201787401020179E4C0E08521F0747E07
:100180001132600302018C740102018DE4D0F0553C
:10019000F0B40102800302019DE521115BE521B469
:1001A0000D0280030201A911D28521E011F20201A2
:1001B0005EC2AF80FE0000000000000000000000F2
:00000001FF
